:020000040800F2
:1000000020040020C1010008510200084902000834
:100010004D02000841020008C10300080000000072
:10002000000000000000000000000000590200086D
:100030004502000800000000550200085D020008AB
:10004000DB010008DB010008DB010008DB01000820
:10005000DB010008DB010008DB010008DB01000810
:10006000DB010008DB010008DB010008DB01000800
:10007000DB010008DB010008DB010008DB010008F0
:10008000DB010008DB010008DB010008DB010008E0
:10009000DB010008DB010008DB010008DB010008D0
:1000A000DB010008DB010008DB010008DB010008C0
:1000B000DB010008DB010008DB010008DB010008B0
:1000C000DB010008DB010008DB010008DB010008A0
:1000D000DB010008DB010008DB010008DB01000890
:1000E000DB010008DB010008DB010008DB01000880
:1000F000DB010008DB010008DB010008DB01000870
:10010000DB010008DB010008DB010008DB0100085F
:10011000DB010008DB010008DB010008DB0100084F
:10012000DB010008DB010008DB010008DB0100083F
:10013000DB010008DB010008DB010008DB0100082F
:10014000DB010008DB010008DB010008DB0100081F
:10015000DB010008DB010008DB010008DB0100080F
:10016000DB010008DB010008DB010008DB010008FF
:10017000DB010008DB010008DB01000800000000D3
:10018000DB010008DB010008DB010008DB010008DF
:10019000DB010008DB010008DB01000800000000B3
:1001A000DB010008DB010008DB010008DFF80CD0F0
:1001B00000F02EF800480047250600082004002023
:1001C0000648804706480047FEE7FEE7FEE7FEE7F1
:1001D000FEE7FEE7FEE7FEE7FEE7FEE76102000856
:1001E000AD01000830B50B46014600202022012455
:1001F00009E021FA02F59D4205D303FA02F5491BF5
:1002000004FA02F52844151EA2F10102F1DC30BD0A
:100210001CB509480090094801900546009C06E07D
:10022000E06840F0010394E8070098471034AC42BE
:10023000F6D3FFF7BFFF0000480C0008680C000869
:10024000FEE7000070470000FEE70000FEE7000048
:1002500070470000704700007047000000F0B2B81F
:1002600081B04EF68851CEF200010A6843F60800CC
:1002700042F47002C4F202000A6050F8081C41F017
:10028000010140F8081C00BF50F8081C8907FBD585
:10029000016841F08001016000210091009A4F2A1D
:1002A00006D800BF009A01320092009A502AF9D372
:1002B000026842F090020260009100994F2905D82F
:1002C00000990131009100995029F9D301684FF646
:1002D000FF7221F00301016050F8081CCFF6F662AE
:1002E000114040F8081C50F8081C4FF0000C21F495
:1002F000802140F8081CC0F800C0026843F21002D8
:10030000C2F2004240F8042CC0F804C050F8082C97
:1003100042F4803240F8082C4FF6FE7250F8081C68
:10032000013A4CF10003890302D4002BF6D100BF3F
:1003300050F8081C8903FBD5826B47F2000142F09C
:100340008052C4F2000182630A6842F440420A60AB
:1003500002680260026842F400420260026842F4ED
:10036000A052026047F61902C0F6402240F8042C61
:1003700050F8082C42F0807240F8082C50F8082CF5
:100380009201FBD50A6842F480320A604A68D203BF
:10039000FCD50A6842F400320A6000BF4A68920342
:1003A000FCD5016821F003010160016841F0020100
:1003B000016000BF01680907FCD501B0704700006B
:1003C000FEE7000040F20800C2F2000001680029C8
:1003D00008BF704701680139016070474EF6FC5054
:1003E000CEF20000016841F08071016041F200002E
:1003F000CEF2000000214160016841F0010101607E
:100400007047000070B582B0009000984FF47A7188
:1004100048430190019E41F204040020CEF2000402
:10042000002500F061F94DF68361C4F21B31A0FB99
:100430000101880C2168704322688A42FCD06FEA6F
:10044000010388BF4B425119CD1885421146F3D3A1
:1004500002B070BDB0B541F20005C4F2010504461A
:10046000C1B2284600F0A0FA2846072100F00AFB96
:100470000028F9D02046B0BDF0B5D0F820E0D0F883
:1004800024C000230F27002505E000BF0135082DFB
:1004900003F104030CD022FA05F6F607F6D007FAAA
:1004A00003F62EEA060601FA03F446EA040EEDE727
:1004B000082300240F2504E00133102B04F1040469
:1004C0000CD022FA03F6F607F6D005FA04F62CEA69
:1004D000060701FA04F647EA060CEDE7C0F820E04B
:1004E000C0F824C0F0BD000081617047C162704750
:1004F0002DE9F041D0F800E0D0F80CC000244FF016
:100500000308002605E000BF0136102E04F10204A6
:1005100012D023FA06F7FF07F6D008FA04F72EEAFE
:10052000070E01FA04F54EEA050E2CEA070702FA57
:1005300004F547EA050CE7E7C0F800E0C0F80CC096
:10054000BDE8F0810129416814BF99431943416016
:10055000B0B5D0F808C000214FF0030E002404E02D
:100560000134102C01F102010CD023FA04F5ED073F
:10057000F6D00EFA01F52CEA050C02FA01F54CEA68
:10058000050CEDE7C0F808C0B0BD0000B0B540F6FE
:10059000044000F007F940F6034000F003F940F68C
:1005A000064000F0FFF84FF4406000F0FBF8002434
:1005B000C4F2020404F580552846012100220823D4
:1005C000FFF796FF2846002102220823FFF7BAFF13
:1005D00004F540652846012100228023FFF788FFAB
:1005E0002846002102228023FFF7ACFF04F5C05506
:1005F0002846012100220823FFF77AFF2846002120
:1006000002220823FFF79EFF20460121002220231B
:10061000FFF76EFF2046002102222023BDE8B040F4
:10062000FFF790BF82B041F20008C4F2020800F068
:10063000E9F8FFF7D3FEFFF7A9FF4FF4E13000F030
:1006400067F9002000F050F840F20C09C2F20009EE
:10065000C9F80000012000F047F840F2100AC2F289
:10066000000ACAF80000022000F03EF840F214042C
:10067000C2F200042060032000F036F840F21806B1
:10068000C2F20006306040460821FFF72DFFA8F5B2
:1006900080608021FFF728FF08F500600821FFF740
:1006A00023FFA8F580502021FFF71EFF0AA500BFF9
:1006B00040460821FFF71AFF4FF47A70FFF7A2FEB9
:1006C000D9F80010DAF80020236837682846009728
:1006D00000F0ECF9ECE700BF25642C25642C2564C0
:1006E0002C25640D0A00000010B543F60402C4F284
:1006F000020253680146C3F3810342F20040022B19
:10070000C0F2F40006D0012B1FD147F64000C0F222
:100710007D101AE0D2F800C013680CF03F0CC3F350
:10072000881E13681468C3F30143640247F640044B
:10073000C0F27D1458BF0446B4FBFCF4022000EB69
:10074000430004FB0EF3B3FBF0F0536811A4C3F3B2
:100750000313E35C546840F6404CC4F38224C0F6B3
:10076000000C1CF804E05268032907D820FA03F3B0
:10077000DFE801F00F020609184610BD002010BD89
:1007800023FA0EF010BDC2F342301CF8000023FA29
:1007900000F010BD00000000000000000102030492
:1007A0000607080943F6000300F01F018009C4F2A0
:1007B00002034FF0010CC2580CFA01F11143C15071
:1007C0007047000043F6000300F01F018009C4F2E7
:1007D00002034FF0010CC2580CFA01F122EA0101A8
:1007E000C150704743F6000300F01F018009C4F2B6
:1007F00002034FF0010CC2580CFA01F11143C15031
:100800007047000040F20400C2F20000006844F6A5
:10081000D351C1F26201A0FB01014FF0FF3000EBA8
:100820009110B0F1807F11D24EF21001CEF2000192
:1008300048604EF62350CEF20000F02202700022F3
:1008400007238A600B600270704700BFFEE700005C
:10085000B0B5044647F2FF70C4F200000D46844272
:100860004FF000000EDC44F6FF31C4F200018C4270
:1008700017DC44F20041C4F200018C421DD044F662
:10088000000116E040F6FF71C4F201018C422FDC3A
:1008900047F60001C4F200018C420ED047F6004139
:1008A00007E044F60041C4F200018C4205D045F255
:1008B0000001C4F200018C4203D102210846FFF777
:1008C00013FFE168090406D400EB5500B0FBF5F016
:1008D00080B2A060B0BD400000EB5500B0FBF5F069
:1008E0004FF6F0710140C0F342000844A060B0BD73
:1008F00041F20001C4F201018C424FF00301DDD04E
:1009000041F20042C4F201029442D7D0D9E700007C
:10091000B0B504464FF44060FFF744FF41F20410C5
:10092000FFF740FF0025C4F20205284607214FF4D7
:100930000072FFF7A1FD284607214FF48062FFF700
:100940009BFD2846022101224FF40073FFF7D0FDE2
:100950002846002102224FF40073FFF7F3FD2846DA
:10096000022101224FF48063FFF7C2FD28460021D7
:1009700002224FF48063FFF7E5FDA5F57045284698
:1009800000F016F828462146FFF762FF28460421AA
:1009900000F080F82846082100F082F82846BDE8DB
:1009A000B04000F069B800006FF35F21416070470C
:1009B00010B547F2FF71C4F20001884214DC44F61E
:1009C000FF31C4F20001884224DC44F20041C4F249
:1009D000000188423CD044F60001C4F20001884284
:1009E00049D140F612043EE040F6FF71C4F2010125
:1009F00088421EDC47F60001C4F2000188422AD07A
:100A000047F60041C4F20001884218BF10BD40F60D
:100A10001F0428E044F60041C4F2000188421DD0C2
:100A200045F20001C4F20001884224D140F61404CA
:100A300019E041F20001C4F20101884211D041F2F3
:100A40000041C4F20101884215D140F605140AE0C4
:100A500040F6110407E040F61E0404E040F61304DB
:100A600001E040F604142046FFF7BCFE2046BDE836
:100A70001040FFF7A7BE10BDC16841F40051C1602E
:100A8000704700008A09105801F01F01C84000F0AB
:100A900001007047C26822F004021143C160704730
:100AA000C26822F008021143C16070470FB4054BC1
:100AB00010B503A9044A029800F018F810BC5DF8BC
:100AC00014FB0000550400080000002002E008C8E4
:100AD000121F08C1002AFAD170477047002001E0B8
:100AE00001C1121F002AFBD1704700002DE9FF4F02
:100AF00089B09B460446002506E025280BD05A46BF
:100B00000B999047641C6D1C20780028F5D10DB01E
:100B10002846BDE8F08F0027B8460122474900E08B
:100B2000074314F8013F203B02FA03F00842F7D1D3
:100B300020782E2819D114F8010F47F004072A282D
:100B40000ED06FF02F022078A0F1300109290CD8C7
:100B500008EB880102EB410100EB0108641CF2E79D
:100B60000A98641C50F8048B0A9020780028CED094
:100B7000642808D0692806D075281ED05A460B99DB
:100B800090476D1C58E00A994FF00A0901C90A9173
:100B9000002802DA40422D2102E0390504D52B213C
:100BA0008DF82010012103E0F90704D02021F7E798
:100BB0008A4608AE0DE00021FAE70A994FF00A09CB
:100BC00001C90A91F7E74946FFF70CFB303106F8F7
:100BD000011D0028F7D1ADEB060000F120097807D0
:100BE00001D44FF00108C84502DDA8EB090000E080
:100BF00000208046002706E008A85A46C05D0B99F1
:100C000090476D1C7F1C5745F6DB04E030205A46A8
:100C10000B9990476D1CB8F10001A8F10108F5DCB3
:100C200005E016F8010B5A460B9990476D1CB9F177
:100C30000001A9F10109F4DC641C65E70928010041
:100C40000000000001020304680C000800000020FE
:100C500008000000CC0A0008700C00080800002002
:100C600018040000DC0A000800000000001C4E0E02
:04000005080001AD41
:00000001FF
